:100000000C94C7060C94E4060C94E4060C94493353
:100010000C94E4060C94E4060C94E4060C94E406B8
:100020000C94E4060C94E4060C943A1A0C94F61919
:100030000C946B290C94E4060C94E4060C94E406EE
:100040000C94E4060C94E4060C94E4060C94E40688
:100050000C94E4060C94131B0C94E4060C94E40634
:100060000C94E4060C94E4060C94E4060C94E40668
:100070000C94E4060C94E4060C94E4060C94E40658
:100080000C94E4060C94E4060C94E4060C94E40648
:100090000C94E4060C94E4060C94E4060C94E40638
:1000A0000C94E4060C94E4060C94E4060501098023
:1000B000A101850319012AB700150126B700950192
:1000C00075108100C0050C0901A101850419012AE0
:1000D000A002150126A002950175108100C00660DE
:1000E000FF0961A1010962150026FF00952075082E
:1000F00081020963150026FF00952075089102C052
:1001000005010906A101050719E029E715002501E8
:10011000950875018102950175088101050719008F
:1001200029FF150026FF00950675088100050819AE
:10013000012905950575019102950175039101C08D
:1001400000DA0281FFD9F1DB20A4A62EAF00A0C007
:1001500000A1C800AED580A81FD300408D14200098
:100160005343520053435200434150004341500017
:100170004E554D004E554D005253544C4E450A0AB3
:100180000041646A7573740A0A00526169736520DC
:100190000A0A004C6F776572200A0A0051574552CF
:1001A00054590A0A004C617965723A2000808182B4
:1001B000838485868788898A8B8C8D8E8F90919297
:1001C0009394A0A1A2A3A4A5A6A7A8A9AAABACADED
:1001D000AEAFB0B1B2B3B4C0C1C2C3C4C5C6C7C864
:1001E000C9CACBCCCDCECFD0D1D2D3D400FD377AB3
:1001F000585A000004E6D6B4460200210116000059
:1002000000742FE5A3E005C7015C5D003D8889C649
:100210005436C3174FE4E20F535D9075DB08C96590
:10022000CE09CBAEF2FFD16E9644531750A9573C7E
:10023000F31C36AD768D7A7A850BC9433E38EE5184
:100240005A3E9C7DCEB4C813B9F1CF8867CEB8A909
:10025000BF34EAE3499914A741D5576A229C4F0756
:1002600065976DEDE65205C276003360F788AF837F
:1002700048607DF4FD32CB5CB4A3130FA779664AC6
:100280007A762F3B30DDCAA3AAFD617C0E3B158731
:10029000C37683075D3BDD124776E5A83D1F79BC39
:1002A000A9EAD200281FB159F012878D588EB0E903
:1002B000D5FFF4E903A04E8AAB492B16A40CD6DB7C
:1002C00026072A60542BABFF81864810D3DE5CC61C
:1002D000B9BB689DF8152AF17BB847E73BB48E1D82
:1002E000C999D80C800D5362FBA3A7CA47DAC48D05
:1002F000A5D400E4E0B68391325BFE7CB952F711DD
:10030000374FBEFCB3E328B73538102A1B49CA1152
:100310000AF865AD63E9DB025F78A396C6F116269D
:1003200082AA735DAB26F1710555F4D70A2670CB0E
:100330008BE97F1031D1D48C8FFE74B9BAE044C2FE
:100340004CBC510C2D33D5C383EC4DC6E7B18A911B
:10035000DCFD2D84C79284B72A1FE6A8020BE48433
:1003600025F3DCA34CFFF38400D549FD2D4E472E29
:10037000FA0001F802C80B0000C135F8FFB1C467EC
:10038000FB020000000004595A29001E001F002033
:1003900000210022002B0014001A0008001500178D
:1003A00000E00004001600070009000A00E1001D3B
:1003B000001B0006001900050000000151E300E2E7
:1003C000002C002F003500270026002500240023E4
:1003D000002D00130012000C0018001C0034003324
:1003E000000F000E000D000B00E50038003700364E
:1003F000001000110000000251E7002A0028003020
:100400000001000100010001000100010001001EC7
:10041000021F0220022102220201001E001F0020F2
:100420000021002200010001000100010001000183
:1004300000000001000100010001000100010001B5
:100440000001000100010001000100270226022531
:100450000224022302010027002600250024002395
:1004600000010030022F022E02350031020000018F
:100470000001000100010001000100010001000174
:1004800000010001003A003B003C003D003E003FFF
:100490000001000100010001000100010001000154
:1004A0000001000100010001000000010001000145
:1004B0000001000100010001000100010001000134
:1004C0000045004400430042004100400000004F4E
:1004D0000052005100500000000100310030002F98
:1004E000002E002E020000010001000100010001A9
:1004F00000000000000000000000000000000000FC
:1005000000000000000000000000000000000000EB
:1005100000000000000000000000000000000000DB
:1005200000000001000100010001000000000000C7
:1005300000000000000000000000000000000000BB
:1005400000000000000000000000000000000000AB
:10055000000000000000000000000000000000019A
:100560000001000100010000000000000000000088
:10057000000000000000000000000000000000007B
:10058000000000000000000000000000000000006B
:100590000000000000000000000000010001000158
:1005A000000100000000000000000000000000004A
:1005B000000000000000000000000000000000003B
:1005C000000000000000000000000000000000002B
:1005D0000000000000000001000100010001000017
:1005E000000000000000000000000000000000000B
:1005F00000000000000000000000000000000000FB
:1006000000000000000000000000000000000000EA
:1006100000000001000100010001000000000000D6
:1006200000000000000000000000000000000000CA
:1006300000000000000000000000000000000000BA
:1006400000000000000000000000000000000001A9
:1006500000010001000100000001000100680565C3
:10066000174A17000002000200640565174A1700C8
:100670000003000100690565174A17000004000225
:10068000004E0565174A17D209050001006A056585
:10069000174A17000006000200500565174A1700A8
:1006A0000007000200660565174A170000080001F0
:1006B000006B0565174A170000120002006C056503
:1006C000174A170000130002006E0565174A17004D
:1006D0000014000100700565174A1700001500009E
:1006E0000000005809121500000000000000003E44
:1006F0005B4F5B3E003E6B4F6B3E001C3E7C3E1CE6
:1007000000183C7E3C18001C577D571C001C5E7F67
:100710005E1C0000183C180000FFE7C3E7FF000064
:100720001824180000FFE7DBE7FF0030483A060E08
:1007300000262979292600407F05050700407F050E
:10074000253F005A3CE73C5A007F3E1C1C0800082D
:100750001C1C3E7F0014227F2214005F5F005F5F3D
:100760000006097F017F00006689956A006060606D
:1007700060600094A2FFA2940008047E04080010A8
:10078000207E20100008082A1C0800081C2A0808DF
:10079000001E10101010000C1E0C1E0C0030383EF5
:1007A000383000060E3E0E0600000000000000007B
:1007B000005F000000000700070000147F147F1492
:1007C00000242A7F2A120023130864620036495647
:1007D000205000000807030000001C224100000018
:1007E00041221C00002A1C7F1C2A0008083E080821
:1007F0000000807030000008080808080000006051
:100800006000002010080402003E5149453E0000EF
:10081000427F4000007249494946002141494D3319
:10082000001814127F10002745454539003C4A49FD
:10083000493100412111090700364949493600462E
:100840004949291E00000014000000004034000047
:100850000000081422410014141414140000412252
:100860001408000201590906003E415D594E007C02
:100870001211127C007F49494936003E4141412214
:10088000007F4141413E007F49494941007F0909BC
:100890000901003E41415173007F0808087F0000B4
:1008A000417F4100002040413F01007F0814224168
:1008B000007F40404040007F021C027F007F040810
:1008C000107F003E4141413E007F09090906003E7C
:1008D0004151215E007F09192946002649494932C4
:1008E0000003017F0103003F4040403F001F2040C4
:1008F000201F003F4038403F00631408146300038A
:1009000004780403006159494D4300007F4141418F
:1009100000020408102000004141417F0004020150
:10092000020400404040404000000307080000204F
:1009300054547840007F28444438003844444428C4
:1009400000384444287F0038545454180000087E6E
:100950000902001824241C78007F08040478000091
:10096000447D4000002040403D00007F10284400AE
:100970000000417F4000007C04780478007C08047B
:100980000478003844444438007C182424180018A3
:100990002424187C007C080404080048545454247F
:1009A0000004043F4424003C4040207C001C2040C4
:1009B000201C003C4030403C004428102844004C9F
:1009C0009090907C004464544C44000008364100F0
:1009D000000000770000000041360800000201021C
:1009E0000402003C2623263C00000000000080801A
:1009F0008080000000000080E070180C1830E0805B
:100A0000000010F8901030783010B8FC381000005A
:100A100000000000F8FCF8000000000000000000EA
:100A2000000000001C9C1C00000000F8FCF8000006
:100A3000000000001CFCF8C000000000000080E086
:100A4000F87C1C000000F0FCFCFC1C1C1C1C1C1C8A
:100A50001C1C000000000000C0F0F8381C1C1C1C0E
:100A60001C1C3CF8F0E000E0F0F0F0E0ECEEF7F3F6
:100A70007020007C7C7C7E007E7E7E7F7F7F0000FD
:100A800080C0E07E5B4F5BFEC00000C000DCD7DEB4
:100A9000DEDED7DC00C00000000000000000000027
:100AA00000000000000000000000000000000FBC7B
:100AB000E0818181838382870C183060C000001F31
:100AC000FE90B9FFBB91983C1811133F1100000034
:100AD00000000000FFFFFF00000000000000000019
:100AE00000000000FFFFFF00000000FFFFFF00000C
:100AF000000000000000030F7FF8E080F0FC3F0FD3
:100B00000100000000003F3F3F1C1C1C1C1C3C78E7
:100B1000F8F0E08000000000C3E7FF7E3C38787802
:100B20007070F8FFDF87000F1F3F7F7F7F7F7F3F61
:100B30001E0C001F1F1F3F003F3F3F7F7F7F003085
:100B40007B7F7830202030787F3B0003000F7F0FC1
:100B50000F0F7F0F000300000000000000000000E6
:100B6000000000000000000000183C24666341C142
:100B70008180808080808081C14162386C4CC681D8
:100B800081808080808081C14362361C1800000013
:100B900000000000FFFFFFC0C0C0C0C0C0C0C0C098
:100BA000800000007FFF7F000000007FFFFFC0800B
:100BB000000000E0E0C0C0C0E0F97F1F07000000B7
:100BC00000000000000070F0E0E0C0C0C0C0E0F035
:100BD000F87F3F0F0000000F3F7FF9E0E0C0C0C08A
:100BE000C0C0E0F97F3F1F000000000000000000CF
:100BF00000000000000000000000000000000000F5
:100C000000000000000000000000000000000000E4
:100C100000000000000000000000000000000000D4
:100C200000000000000000000000AF00AE09025B01
:100C300000030100A0FA09040000010301010009FA
:100C4000211101000122400007058103080001096C
:100C50000401000203000000092111010001222209
:100C60000007058203200001070503032000010996
:100C700004020001030000000921110100012232D9
:100C80000007058403200001120100020000000893
:100C9000D8042DEB0001010203011C03760069005A
:100CA00061006C003A0066003600340063003200D8
:100CB00062003300630000000E034C0069006C000A
:100CC000790035003800000010036C0069006C00EA
:100CD000690075006D007300000004030904000042
:100CE0000000000000000000000000000000000004
:100CF00000000000000000000000000000000000F4
:100D000000007E0F00D4FFFFFFC700000078000046
:100D10000000000000002A2B280000000000000056
:100D200000000000000000000029000000002C1E50
:100D30003420212224342627252E362D3738271E0D
:100D40001F202122232425263333362E37381F0433
:100D500005060708090A0B0C0D0E0F1011121314CB
:100D600015161718191A1B1C1D2F3130232D350489
:100D700005060708090A0B0C0D0E0F1011121314AB
:100D800015161718191A1B1C1D2F3130354C11243C
:100D90001FBECFEFDAE0DEBFCDBF11E0A0E0B1E0D3
:100DA000EEEDFAE602C005900D92AE38B107D9F724
:100DB00026E0AEE8B1E001C01D92AA34B207E1F727
:100DC0000E9492290C9449350C940000FC01AC015E
:100DD0004B5F5F4F8FEF91E32191822728E030E056
:100DE00087FF09C0880F892721503109C9F7E41707
:100DF000F50791F70895880FF7CFE8EDF0E08081CF
:100E00008E7F80831092E2001092DA001092E1004F
:100E1000A0EEB0E08C9181608C9380818F7780838D
:100E200019BCA7EDB0E08C918E7F8C9380818F7E72
:100E300080831092310608952091E4003091E500FE
:100E400095E6A9012091EC00822F817020FF06C059
:100E50008091E80080FF06C080E008952091E800BE
:100E600022FD1AC080914706882389F0853089F0D9
:100E70008091EB0085FD0FC02091E4003091E500EA
:100E800042175307F9F29150E1F684E0089582E0A9
:100E9000089583E0089581E00895EF92FF920F9303
:100EA0001F93CF937C018B010E941C07C82F8111D7
:100EB00017C08091E80085FD0BC08091E8008E7717
:100EC0008093E8000E941C07882399F3C82F08C06C
:100ED000F70181917F018093F1000150110949F7D9
:100EE0008C2FCF911F910F91FF90EF900895CF938A
:100EF000FC0180914706843001F5C091E900CF7074
:100F00002091EC00922F917020FD90E8C92B82E097
:100F10008093E9008091E80080FF0CC050E040E041
:100F200060E270E0CF010E944D078091E8008E776B
:100F30008093E800CF70C093E900CF91089580912D
:100F40003F0687FF13C08091E80082FF06C08091B2
:100F5000E8008B778093E80004C0809147068111F8
:100F6000F2CF0895809147068823D9F38091E80055
:100F700080FFF8CF8091E8008E77ECCF982F909388
:100F8000E900242F762F50E0891731F07091EC00A2
:100F90002091ED005091F00021FD07C09F5F973038
:100FA00071F78093E90081E008953091EB003E7F76
:100FB0003093EB003091ED003D7F3093ED003091A8
:100FC000EB0031603093EB007093EC002093ED0068
:100FD0005093F0002091EE0027FDE0CF80E00895CF
:100FE000B0E0A0E0E6EFF7E00C948334C8EDD0E089
:100FF00088818F7E8883E7EDF0E080818160808347
:1010000084E082BF81E08093310688818E7F88836F
:1010100002EE10E0F80110821092DA0081EEC82E84
:10102000D12CF601108288818F778883888180682F
:10103000888388818F7D888319BC1092470610921F
:101040003E0610923D0610923C0690EEE92EF12CE1
:10105000F70180818B7F808388818160888342E073
:1010600060E080E00E94BE07F60180818E7F808371
:10107000F801808181608083808188608083F701AE
:1010800080818E7F8083888180618883CDB7DEB741
:10109000E8E00C949F34FC0180914506909146064F
:1010A00086179707A0F06115710529F49091E80063
:1010B0009E779093E80090E06115710551F49111CD
:1010C00008C08091E80082FF34C080E00895BC0130
:1010D000F2CF809147068823C1F18530C1F180911C
:1010E000E80083FD30C08091E80082FDEACF809166
:1010F000E80080FFE1CF8091F3002091F200382FCB
:101100006115710519F02830310558F091E028304B
:10111000310509F090E02091E8002E772093E80057
:10112000CBCF81918093F100615071092F5F3F4FC8
:10113000E7CF80914706882341F0853041F08091C8
:10114000E80083FFBECF81E0089582E0089583E048
:1011500008950895089580913306089587E797E7E5
:10116000909301088093000888E19AE00FB6F89404
:10117000A895809360000FBE90936000FFCF2FB7BB
:10118000F89460912A0670912B0680912C0690911C
:101190002D062FBF08952091270630912806281785
:1011A000390771F09093280680932706E091250671
:1011B000F0912606309721F00084F185E02D099505
:1011C000089520912306309124062817390771F0DD
:1011D0009093240680932306E0912506F09126063D
:1011E000309721F00680F781E02D09950895452B71
:1011F00039F0682381E06F3F09F080E08170089545
:1012000081E0FCCFDC0160911A0680911B06962FCD
:10121000891301C00895292F30E0F901EE0FFF1F57
:10122000EE5EF94F408151814A175B07A1F487E0D8
:101230008A9FA0018B9F500D112446525A4F81E086
:10124000FA0184839613E6CF2F5F3F4F2370332735
:1012500020931A0608952F5F3F4F922F9370D8CF97
:101260001092770510927605EAEDF5E085818111FF
:1012700002C014821682379686E0E231F807B1F791
:10128000089520911C0336E0839FC0011124629FC2
:10129000800D911D1124811522E0920714F090E039
:1012A00080E0815E9C4F90932605809325050895EC
:1012B000B0E0A0E0EEE5F9E00C9481348FEF9FEF11
:1012C0004430510508F469C040911A0341FB882756
:1012D00080F990E0880F991F42FB002700F910E089
:1012E000000F111F000F111F802B912B40FBCC24EE
:1012F000C0F8D12C8C299D2943FB222720F9C22F2D
:10130000E0E0DE2F53E0CC0FDD1F5A95E1F78C2B88
:101310009D2B44FBAA27A0F9B0E0E4E0AA0FBB1F75
:10132000EA95E1F78A2B9B2B45FBEE27E0F9F0E0ED
:10133000A5E0EE0FFF1FAA95E1F78E2B9F2B46FB32
:10134000222720F930E0B6E0220F331FBA95E1F7EB
:10135000822B932B47FB222720F930E03695322F42
:10136000222737952795822B932B20911B03322F11
:101370003170F32EE82EF92A26952170B22EBB0C7F
:10138000A82EBF28C501BB0CAA0BBB0BFB01808399
:101390009183A283B38390E080E0CDB7DEB7EAE02B
:1013A0000C949D3480914E0590914F0590932D01A2
:1013B00080932C010895E0E9F2E090E080E06EED8A
:1013C0007FE145E050E223E53FE176836583508786
:1013D0004783328721879487838701963D9684309F
:1013E000910599F7089581152CE5920741F4209114
:1013F000140330911503232B11F490E080E008953D
:1014000080E00895F894E82FE295EF70F0E031A1C4
:10141000282F2F7081E090E001C0880F2A95EAF70D
:10142000982F9095932391A392A1892B82A37894CE
:10143000089590911A0392FF06C0282F2871283032
:10144000F9F4877F846093FF06C0282F2871283124
:10145000F1F4877E846120911B0320FF06C0382FA2
:1014600038713830D9F4877F816021FF06C0282F7A
:1014700028712831D1F4877E816194FD877E08959B
:10148000282F24712430F9F68B7F8860DCCF282F39
:101490002471243101F78B7E8861DDCF382F3171C3
:1014A000313019F78E7F8860E0CF282F21712131EC
:1014B00021F78E7E8861E1CFCF93DF93EC018238F4
:1014C000910581F1D8F58133910509F498C020F593
:1014D0008932910509F488C08A9709F497C0C1152B
:1014E00021E5D20708F0B1C0C11530E5D30708F0F7
:1014F000F9C0CF3BD10508F090C0C83AD10508F03B
:10150000E6C0C53AD10508F0DAC0C430D10520F5EF
:10151000C130D10509F145C08533910509F45FC09B
:10152000C997E9F680911A03837009F029C1809167
:101530001B0383FF11C0C9E2D0E00EC0833E9105BA
:1015400099F170F4803E910501F1823E910539F6E2
:1015500080911A0382FD21C0CE01DF91CF910895C1
:10156000863E910561F1873E910571F1843E9105BA
:1015700009F0B5CF80911B0381FFEECF80911A0354
:10158000C7EED0E084FD0DC0E7CF80911A0380FD47
:1015900033C090911B0390FFDFCFC3EED0E084FFF8
:1015A000DBCFD0E0C0E0D8CF80911A0382FDE5C048
:1015B00090911B0390FDE4C084FFCECFF2CF8091C9
:1015C0001A0383FDDDCFC8CF80911A0383FDDBC0F2
:1015D00090911B0391FFF0CFC4EED0E0BDCF80917E
:1015E0001A0385FFB9CFA7CF80911A0385FDCEC01E
:1015F00080911B0383FFB0CFC9E3D0E0ADCF8091D2
:101600001A0386FFA9CFCAE2D0E0A6CF80911A03C1
:1016100086FFA2CFC1E3D0E09FCFC11540E2D4073F
:1016200060F4C11581E0D80708F096CFCE01805E46
:101630009109089708F490CFB4CFC11520E4D207E0
:1016400008F4AFCFDF70D06A87CFC11534E5D30778
:1016500078F4C11543E5D40708F06DC0C11582E5E3
:10166000D80708F054C0DC2FCC27C16FD06A74CFE4
:10167000C1152AE5D20778F4C11539E5D30708F07A
:101680006EC0C11548E5D40708F48BCFDC2FCC27FA
:10169000C06FD06A61CFCE0190568115904208F09C
:1016A00080CF8D2F8F710E94190A90E0982F882784
:1016B00088279F719C012C2BE901D0624DCFC55A20
:1016C000D0E0C75CDE4FC881D0E0D06445CFC85AB7
:1016D000D0E0CC0FDD1FC45CDE4F0990D881C02D57
:1016E000D4643ACF2C2F26952695237040E2249F70
:1016F000900111248C2F8370C1E0D0E002C0CC0F88
:10170000DD1F8A95E2F7C22BD32BDD6825CFCE01F2
:101710008370992721E030E002C0220F331F8A95A1
:10172000E2F7C695C69580E2C89FE0011124C22B5E
:10173000D32BDC6811CFCE018370992721E030E0F4
:1017400002C0220F331F8A95E2F7C695C69540E284
:10175000C49FE0011124C22BD32BDA68FDCE8C2F5D
:101760008F700E94190A34E0D695C7953A95E1F733
:10177000CF709C2FEC01D069EFCEC2EED0E0ECCE62
:10178000C0EED0E0E9CEC6EED0E0E6CEC5E3D0E0D4
:10179000E3CE809590912D05982390932D05089583
:1017A0002091FB019091BA01291302C080E00895B5
:1017B00030E0F90153E0EE0FFF1F5A95E1F7E554D1
:1017C000FE4F5181561306C05081581303C05281F9
:1017D000541304C02F5F3F4F2770E6CF81E0089578
:1017E0008091FB019091BA01981301C008958F5F19
:1017F0008770FACF292F9A3078F5863068F590E017
:1018000036E0239F800D911D1124682F677023E01F
:10181000969587952A95E1F7FC01EE0FFF1FE80FDB
:10182000F91FE656FE4F50E040E080E0219130E0A5
:10183000062E02C0369527950A94E2F721703327C9
:10184000042E01C0220F0A94EAF7822B4F5F5F4FEC
:101850004330510559F7089580E00895292F9A30B3
:1018600098F5863088F590E036E0239F800D911D35
:101870001124282F277041E001C0440F2A95EAF770
:1018800023E0969587952A95E1F7FC01EE0FFF1F5F
:10189000E80FF91FE656FE4F30E020E070E051916E
:1018A000DF011197CB01022E02C0969587950A940D
:1018B000E2F7817081958527842385278C932F5F9C
:1018C0003F4F2330310559F7089592959F70963018
:1018D00091F058F4925F9F70923058F4803F19F065
:1018E00030F4883E30F481E008959A5FF4CF843F6D
:1018F000D1F380E00895883EB0F3813FD1F7F3CF74
:10190000982F92959F7011F0892F94E0282F26959B
:10191000269511F09E5F822F869509F09F5F892F93
:1019200008959C013A9521153F4150F5FC01EE27A1
:10193000F170BC0166277270AC01442754709C01A1
:101940002227387094FF0EC080E1EF2B09F480E06D
:10195000672B09F08062452B09F08064232B89F006
:101960008068089581E0EF2B09F480E0672B09F08F
:101970008260452B09F08460232B19F0886008955C
:1019800080E0089580932E067093300660932F06B2
:10199000809147068430F9F48093E9008FEF9091AD
:1019A000E800815095FD06C095ED9A95F1F700008D
:1019B0008111F5CF8091E80085FF0DC050E040E037
:1019C00063E070E08EE296E00E944D078091E800AF
:1019D0008E778093E8000895BC0184E00E94C20CD9
:1019E0000895BC0183E00E94C20C0895CF93DF9359
:1019F000EC0181E08093E9008FEF9091E800815045
:101A000095FD06C095ED9A95F1F700008111F5CF8F
:101A10008091E80085FF14C050E040E068E070E08D
:101A2000CE010E944D078091E8008E778093E800F8
:101A300088E0FE01A4E3B6E001900D928A95E1F7FB
:101A4000DF91CF910895019708F40895EFE9FFE041
:101A50003197F1F700C00000F6CFB0E0A0E0E3E37B
:101A6000FDE00C9481347C015B016A0180912702C6
:101A700001E010E08A3010F40AE010E0C1E0D0E0AC
:101A8000B501C701F6010995811104C021960C1713
:101A90001D072CF4CDB7DEB7EAE00C949D34CC9F43
:101AA0009001CD9F300D300D112490E080E045E392
:101AB0004A95F1F70000019682179307C1F7E0CF2E
:101AC00080910F02811110C08091D80080618093B5
:101AD000D8008AE18A95F1F700C08091D90080FF93
:101AE0000AC081E080930F0281E090910F02913053
:101AF00009F080E0089582E080930F020E94FD06C5
:101B000010924706F1CF0E94600D882359F0E091B2
:101B10002506F0912606309729F00190F081E02DFE
:101B20000995089580E00895B0E0A0E0EAE9FDE0BD
:101B30000C9483346C017B0164E670E088E70E94BA
:101B4000C331EC0197FD12C010E000E0F601E00F98
:101B5000F11F849164E670E00E942F32EC01892B22
:101B600029F40F5F1F4F0E151F0581F70E94A53244
:101B7000CE01CDB7DEB7E8E00C949F3480912B0501
:101B800090912C05911103C091E089270895882335
:101B900069F062E070E08BE29CE00E94940D892B7A
:101BA00019F080912B05089510922B0580912B053B
:101BB000EBCFCF93C0912B0580912C058823D1F0DA
:101BC0000E94BF08605A75418F4F9F4F6093270551
:101BD000709328058093290590932A05C11108C0A8
:101BE00062E070E089E29CE00E94940D892B29F06C
:101BF000C0912B058C2FCF91089581E080932B0508
:101C0000F7CF80912D0590914906892B8093900103
:101C100048E050E06CEF71E080E991E00E94D2343E
:101C2000892BA9F088E0E0E9F1E0ACEFB1E00190A8
:101C30000D928A95E1F7E0912506F09126063097FE
:101C400031F00280F381E02D80E991E0099508955B
:101C5000CF93DF93EC01E985FA85309719F06B8516
:101C60007C8509958B81982F9095809149068923D1
:101C7000809349060E94010E85E0FE0111928A952B
:101C8000E9F7DF91CF910895CF93DF93EC018C8139
:101C900081FD12C082608C83809149069B81892BD3
:101CA000809349060E94010EEF81F885309721F05C
:101CB0006B857C85CE010995109222061092210633
:101CC0008C8180FD03C0CE010E94280EDF91CF9150
:101CD000089580912E01877F80932E01909149066F
:101CE0009D7F9093490684FF08C08F7E80932E01CC
:101CF00080912D05826080932D0580912E0185FFB6
:101D000008C08F7D80932E0180912D058062809385
:101D10002D050E94010E089590E080E00E94E108E8
:101D200090E080E00E94CB08109249060E94010ECC
:101D30000895982F9670963031F488608093480605
:101D40000E948C0E0895877FF9CF80914806982FC6
:101D50009670963021F488600E94990E0895877FCE
:101D6000FBCF21E030E001C0220F8A95EAF72095F1
:101D70008091480682230E94990E089521E030E068
:101D800001C0220F8A95EAF780914806822B0E94B3
:101D9000990E0895809304020E948C0E0895882362
:101DA00041F08095909149068923809349060E94CD
:101DB000010E0895882339F090914906982B90934D
:101DC00049060E94010E0895882321F00E94C90B44
:101DD0000E94010E0895882339F090912D05982BCB
:101DE00090932D050E94010E0895882391F19CEF98
:101DF000980F913A80F4E2E9F1E028E931E091911D
:101E0000891303C0DF0111971C922E173F07B9F702
:101E10000E94010E089590E2980F983050F4877058
:101E200091E001C0990F8A95EAF7892F0E94C90BAA
:101E3000EFCF9BE5980F933028F490E080E00E946C
:101E4000E1080895885A873120F490E080E00E94EC
:101E5000CB080895CF93DF93EC010E94F50ECE01DD
:101E60000E94910C9E01205E31092830310510F04E
:101E7000CD2B29F40E94E40EDF91CF9108950E94AA
:101E8000CF0EFACF0F931F93CF93C82F882349F11A
:101E90008CEF8C0F813AB8F502E911E088E991E006
:101EA000F8012191C21709F121E0E839F207C9F7D9
:101EB000EFEF80E0D8019D918D01C91781F0EF3FD0
:101EC00019F4911101C0E82F8F5F863099F7EF3F29
:101ED00031F00E2E000CFF0BE057FE4FC2830E9424
:101EE000010ECF911F910F910895E2E9F1E0219148
:101EF000C21303C0DF0111971C928E179F07B9F719
:101F00000E94010ED5CF80E28C0F883068F4C77034
:101F100021E030E001C0220FCA95EAF780912D053B
:101F2000822B80932D05DBCFEBE5EC0FE33040F403
:101F3000F0E0E75CFE4F808190E00E94E108D1CFA5
:101F4000C85AC73170F6EC2FF0E0EE0FFF1FE45CCB
:101F5000FE4F808191810E94CB08C3CF1F93CF9306
:101F6000DF93182FC0916E05D0916F05893321F052
:101F7000C0916C05D0916D05812F0E94420F209772
:101F800039F4812F0E94F50EDF91CF911F910895B2
:101F90008FE99FE00197F1F700C000002197EFCF94
:101FA000B0E0A0E0E6EDFFE00C948134EC018AE0C3
:101FB000A82E2881222309F48FC02130C9F59981E8
:101FC0008A81913021F422960E94AE0F05C0923092
:101FD00029F422960E94420F2196EBCF933021F4F0
:101FE00022960E94F50EF8CF943011F02196F4CF8E
:101FF000229630E020E0AE014F5F5F4F8053990B97
:102000008A30910550F02150310930F38FE99FE07B
:102010000197F1F700C00000F6CFA29EB001A39E89
:10202000700D11249C01260F371F8981EA01E3CF2F
:10203000E22FF0E0E25FF24FB490822F8695869512
:10204000869590E0FC01E250F34FE4902770F12C6C
:10205000022E02C0F594E7940A94E2F731E0E322FD
:10206000FF24FC01E251F34FC490D12C022E02C098
:10207000D594C7940A94E2F731E0C322DD24FC0131
:10208000E252F34F049110E002C0159507952A958E
:10209000E2F701701127E114F10419F081EE0E94BA
:1020A000420FC114D10419F086EE0E94420F8B2D0D
:1020B0000E94AE0FC114D10419F086EE0E94F50EF5
:1020C000E114F10419F081EE0E94F50E01151105DD
:1020D00009F482CF8CE278CFCDB7DEB7EAE00C947A
:1020E0009D34CF93DF93EC010E94910C9E01205E02
:1020F00031092830310510F0209741F40E94EB0E91
:102100008C2F0E94420FDF91CF9108950E94DA0E2A
:10211000F7CF662329F020914906226020934906D3
:102120009C013056211540E2340720F0305E211525
:10213000304108F499270E9471100895B0E0A0E0A2
:10214000E4EAF0E10C9484347C018B01D42E80917C
:102150002E0182FF8CC0C0917405D0917505CE15FB
:10216000DF0521F0E114F10409F081C080912E0116
:102170008B7F80932E0181FD73C0809172059091B9
:102180007305A801481B590B81E020912C01309167
:102190002D014217530708F480E08170F82E8091DA
:1021A0002E01F0FA81F980932E01FE0183E0F6956D
:1021B000E7958A95E1F7EE71FF27E25DFA4F2081FE
:1021C0003181AE014F70552781E090E002C0880F49
:1021D000991F4A95E2F7FF2009F444C0822B932B04
:1021E0009183808380912D0581FF08C080912E010D
:1021F000806180932E0182E00E94C90B80912D05A1
:1022000085FF08C080912E01806280932E0180E2BC
:102210000E94C90B6F2DCE010E948910DD2031F084
:102220008091690585FF02C086FF3BC080916C05E7
:1022300090916D050E94230D809174059091750514
:102240009C013056211540E2340720F0305E211504
:10225000304108F499270E942A0F0E94690E1DC080
:1022600081E09BCF8095909582239323B9CFC701BE
:10227000992797013056211540E2340728F0305E47
:102280002115304108F0C7010E942A0F8091740582
:10229000909175058E159F0501F3109373050093BA
:1022A0007205CDB7DEB7E7E00C94A03410922D058F
:1022B000E2E9F1E086E0DF011D928A95E9F70E94EC
:1022C0008C0E0895AAE2B0E0E8E6F1E10C948834BF
:1022D0008FE396E02091F100DC012D93CD01B6E073
:1022E00087349B07B9F780914006833009F472C0A8
:1022F000B8F4813009F449C0823009F4B3C0809148
:10230000E80083FF96C280913F06909140069A3084
:1023100008F08FC2E92FF0E0E55BFA4C0C94BC3476
:102320008A3009F48EC08B3009F471C0893039F7D6
:1023300080913F06813219F78091430690914406BF
:10234000009711F00297D9F68091E800877F80937B
:10235000E8008091E80082FF38C09091F3008091FE
:10236000F200029731F48091F100813011F0863053
:1023700021F48091F100809333068091E8008B77FF
:102380008093E8000E949F07BACF80913F06813A70
:1023900009F0B5CF8091E800877F8093E8008091B5
:1023A000430690914406892B61F468E084E396E04B
:1023B00070E00E944B088091E8008B778093E800E2
:1023C0009ECF60E090E080E0F3CF809147068111DE
:1023D000C0CF95CF80913F06813A09F090CF809190
:1023E000430690914406892B09F089CF8091E8003B
:1023F000877F8093E8008091E80080FFFCCF809188
:1024000030018093F1008091E8008E77B9CF809100
:102410003F06813209F073CF8091430690914406C4
:10242000892B09F06CCF8091E800877F8093E800CA
:102430000E949F0780914106809330010E945611AF
:102440005ECF80913F06813209F059CF8091E8003C
:10245000877F8093E8000E949F07809142068093C7
:1024600032064DCF80913F06813A09F048CF8091E6
:10247000E800877F8093E8008091E80080FFFCCF30
:1024800080913206BECF803899F0823809F0D1C1F0
:10249000809143068F70873008F0CBC18093E900AC
:1024A0008091EB0085FB882780F91092E90006C037
:1024B00080913C0690913D06911182609091E800D8
:1024C000977F9093E8008093F1001092F100809143
:1024D000E8008E77AAC1882309F498C1823009F0F8
:1024E000A8C18091410681119BC1809143068F70E4
:1024F0002FEF280F263008F09CC18093E90020912F
:10250000EB0020FF8DC1933031F48091EB008062AD
:102510008093EB0085C19091EB0090619093EB006C
:1025200021E030E001C0220F8A95EAF72093EA000B
:102530001092EA008091EB008860EACF811179C1A6
:10254000109141061F778091E3008078812B809362
:10255000E3008091E800877F8093E8000E949F0756
:102560008091E80080FFFCCF8091E3008068809339
:10257000E30082E0111183E0809347065AC180583E
:10258000823008F056C120914106309142062C3D20
:10259000E3E03E07A1F583E08A838AE289834FB7AF
:1025A000F894DE01139620E03EE051E2E32FF0E0E4
:1025B00050935700E49120FF03C0E295EF703F5F16
:1025C000EF708E2F90E0EA30C0F0C7968D939D9308
:1025D0002F5F243159F74FBF8091E800877F8093A8
:1025E000E8006AE270E0CE0101960E944B088091FB
:1025F000E8008B778093E8001CC1C096E7CF8091FC
:10260000430690914406432F55274330510509F462
:102610004AC078F54130510509F485C08BE590E05A
:10262000EDE2FCE04230510509F003C12091E800E1
:10263000277F2093E80020914506309146068217B7
:10264000930708F49C0140E02115310509F070C0A2
:1026500041116EC08091E80082FDC9CF809147068C
:10266000882329F2853019F28091E80083FFF2CFA8
:10267000BECF4132510509F447C04232510509F03D
:10268000D8C08330910508F0D4C0FC01EE0FFF1FC5
:10269000EE57FE4F0190F081E02D81589E4FDC01F6
:1026A0008C9190E01DC0332721303105E9F02115D0
:1026B000310579F022303105F9F02330310509F088
:1026C000B8C0EAE9FCE0E4918E2F90E0EAE9FCE092
:1026D00007C0EAEDFCE0E4918E2F90E0EAEDFCE02B
:1026E000009709F4A6C0A2CFE8ECFCE0E4918E2F9D
:1026F00090E0E8ECFCE0F4CFE8EBFCE0E4918E2F16
:1027000090E0E8EBFCE0ECCF8330910508F091C05D
:10271000880F991FFC01E857FE4F0190F081E02DD2
:1027200089E090E083CF82E190E0E8E8FCE07ECFB2
:1027300080914706882309F45ACF853009F457CF92
:102740008091E80083FD53CF8091E80082FD82CF25
:102750008091E80080FF78CF9091F3008091F200A3
:102760002115310519F08830910550F041E00897A6
:1027700009F040E08091E8008E778093E80064CF14
:1027800044914093F1003196215031090196E8CFF0
:10279000803809F04EC08091E800877F8093E80080
:1027A00080913E068093F10092CE811142C010913B
:1027B00041061230F0F58091E800877F8093E800B1
:1027C00010933E060E949F07112311F084E005C07C
:1027D0008091E30087FDFACF81E08093470642E0D5
:1027E00061EC81E00E94BE0742E261EC84E00E945D
:1027F000BE0742E261EC82E00E94BE0742E260EC6A
:1028000083E00E94BE078091470613C08091410675
:10281000813079F481E0933009F080E080933D06C7
:102820001092E9008091E800877F8093E8000E9481
:102830009F078091E80083FF0AC08091E800877FAE
:102840008093E8008091EB0080628093EB00AA9671
:10285000E3E00C94A4340E9456112FEF84E39CE033
:10286000215080409040E1F700C0000088E19AE0EC
:102870000FB6F894A895809360000FBE9093600007
:10288000FFCF1F93CF93DF93162FC0912505D091D3
:1028900026058A30D1F420911C03CE018F5193403C
:1028A000622F70E00E946534281B822F66E00E9430
:1028B000B034C82FC15020F4DF91CF911F910895FB
:1028C00060E080E20E944114F5CF8D30E9F4CF51F1
:1028D000D34020911C03622F70E0CE010E9465342A
:1028E000281B822F9E01280F311D2115324018F020
:1028F00080E0D0E0C0E0C80FD11DC15EDC4FD093B6
:102900002605C0932505D8CF96E0FE01AFE1B5E0DE
:1029100001900D929A95E1F7803E90F186E0FE01DC
:1029200011928A95E9F7C0912505D09126051111DC
:1029300033C046E050E0BE018FE195E00E94D23402
:102940009E012F513340892B91F52A5F3F4F4091D3
:102950001C03642F70E0C9010E946534481B463097
:1029600010F4240F311D211572E0370710F030E00C
:1029700020E0215E3C4F30932605209325059CCF17
:10298000F6E08F9FB00111246751794F46E050E087
:10299000CE010E94C934C7CF9E012A5F3F4FFE017E
:1029A0002E173F0731F2808180958193F9CFC901BD
:1029B00045E0969587954A95E1F741E050E0BA01E8
:1029C00002C0660F771F8A95E2F7CB0160911D0365
:1029D00070911E03862B972BB9016B5F7F4FE5E04B
:1029E00076956795EA95E1F702C0440F551F6A9501
:1029F000E2F7842B952B90931E0380931D03A5CFA4
:102A00001F93CF93DF93EC01162FFE018491811168
:102A100004C0DF91CF911F910895612F0E9441144E
:102A20002196F3CFCF92DF92EF92FF928FEF9FEF3D
:102A30004430510508F46EC0FB01C080D180E280B3
:102A4000F3800E94561160911A03C0FA60F9D70111
:102A5000C601B695A7959795879580FB61F9D70133
:102A6000C60132E0B695A795979587953A95D1F727
:102A700080FB62F9D701C60143E0B695A79597950B
:102A800087954A95D1F780FB63F9D701C60154E0D9
:102A9000B695A795979587955A95D1F780FB64F9D8
:102AA000D701C60175E0B695A795979587957A9554
:102AB000D1F780FB65F9D701C601E6E0B695A79589
:102AC00097958795EA95D1F780FB66F9D701C601FE
:102AD000F7E0B695A79597958795FA95D1F780FB7E
:102AE00067F960931A0380911B03D0FA80F9D1FA39
:102AF000CC24C0F8F82EC0FAF1F8F0921B0384E061
:102B000090E00E940D356F2D82E290E00E940D351D
:102B100090E080E0FF90EF90DF90CF900895CF930A
:102B2000DF93C3E9D3E060E0CE010E940D3521962A
:102B3000C11584E0D807B9F7DF91CF9108951F93AD
:102B4000CF93DF93122F8630E0F46A30D0F4463012
:102B5000C0F4C42FD0E0CC0FDD1F9CE0699FC00DF6
:102B6000D11D112498E7899FC00DD11D1124632F19
:102B7000CE0187960E940D35612FCE0188960E9466
:102B80000D35DF91CF911F910895CF93C82F6FEF2F
:102B9000811160E183E290E00E940D356FEFC11179
:102BA0006BE284E290E00E940D356FEFC1116BE59E
:102BB00085E290E00E940D35CF9108950F931F9309
:102BC000CF93DF930EE415E0C7EFD2E0CE010E9471
:102BD000FF34F80161918F01681719F0CE010E944E
:102BE0000D352196CB31F3E0DF0781F7DF91CF91EF
:102BF0001F910F9108950F931F93CF93DF930EE4CE
:102C000015E0C7EFD2E0CE010E94FF34F8018193B6
:102C10008F012196CB31F3E0DF07A9F7C3E6D6E0B9
:102C2000FE0185919491009711F0FC0109952C9675
:102C3000F6E0C33FDF07A1F7DF91CF911F910F911E
:102C40000895CF93EEE4F5E0128E138E2FEA30E074
:102C50003183208385E0848F48E853E153834283A6
:102C600042E350E0578B468B318F208F158E178EA5
:102C7000168E20E530E031A320A382A30E94DE154A
:102C80000E94561110921B0310921A03EBE1F3E01D
:102C900080818460808360911A03C82F84E090E073
:102CA0000E940D356C2F82E290E00E940D350E944B
:102CB000FB15CF9108950F931F93CF93DF93863029
:102CC00030F56A3020F5463010F5C42FD0E0CC0F37
:102CD000DD1F2CE0629FC00DD11D112438E7839FBA
:102CE000C00DD11D1124CE0187960E94FF34082FFC
:102CF00010E0102F0027CE0188960E94FF34980123
:102D0000282BC901DF91CF911F910F91089590E079
:102D100080E0F8CF462F2091180330911903232B20
:102D200099F4703F39F4603F79F4809116039091E3
:102D300017030895863040F47A3030F4663020F47A
:102D4000672F0E945B16089590E080E00895CF926F
:102D5000DF92FF920F931F93CF93DF936C0100914B
:102D6000480680910402082BC7E0D0E010E0FC2E5A
:102D7000C8010C2E02C0959587950A94E2F780FD54
:102D80000CC02197A0F7F12C8F2DDF91CF911F91CF
:102D90000F91FF90DF90CF900895B6018C2F0E9485
:102DA0008A160E945C0A019761F3EECFCF93DF93FE
:102DB000EC010E94A716BE010E948A160E945C0ABE
:102DC000DF91CF910895CF93DF93EC014B815C812C
:102DD000698188810E94F708811110C08E819F81CE
:102DE000009739F00E945C0A0E94650CDF91CF9138
:102DF0000895888199810E94D616F6CF80E0F6CF9B
:102E0000A5E0B0E0E6E0F7E10C94883449835A830A
:102E100089819A81662399F0222389F00E94A7165E
:102E2000182F682F89819A810E942E0C69817A81DE
:102E3000812F0E948A162596E3E00C94A4340E9408
:102E4000FA0B182FF3CFFC01262F8681978100976C
:102E500039F4408151816281738184810E9400171D
:102E6000089583E290E00E94FF34803189F484E287
:102E700090E00E94FF348B3259F485E290E00E948A
:102E8000FF3491E08B3509F090E0892F817008952F
:102E900080E0FCCFDA019C012E5F3F4FF9014591A4
:102EA0005491F90125913491A217B30758F0FC0110
:102EB0003496859194910E94DF340E94DE1590E053
:102EC00080E008958FEF9FEF0895DB01FC013296BB
:102ED000259134914217530758F0FC0134966591BF
:102EE0007491A901CD010E94DF3490E080E0089543
:102EF0008FEF9FEF0895A4E1B0E0E1E8F7E10C94D3
:102F00007E34A0901403B090150381E090E090937C
:102F100015038093140389E8C82E83E0D82E00E0BF
:102F2000760110E015C0F40125913491472D612FF1
:102F3000802F0E949F1582E0880E911C7394E6E01A
:102F40007E12F1CFFCE0EF0EF11C1F5F1A3019F07A
:102F50004701712CE8CF0F5F88E7C80ED11C0630FF
:102F6000F9F60E9421161A8219821C821B821E8287
:102F70001D8218861F828FEA90E09A8789874AE02F
:102F800050E06BE173E0CE0101960E9431354AE0DA
:102F900050E065E273E0CE0101960E9431354AE0CF
:102FA00050E06FE273E0CE0101960E9431354AE0B5
:102FB00050E069E373E0CE0101960E9431357E0155
:102FC000EBE0EE0EF11CF70111921A95E9F703E41C
:102FD00013E04AE050E0B801C7010E943135065FB6
:102FE0001F4F0339F3E01F07A1F7B0921503A0921A
:102FF00014036496EDE00C949A3480E00E94C515A9
:1030000060E086E290E00E940D350E947B170E94EE
:103010008F1581E00E94C51508959B01843070F4DE
:103020009AE0899FB0011124655E7C4F4AE050E030
:10303000C9010E94EF3490E080E008958FEF9FEF88
:103040000895AAE0B0E0E7E2F8E10C9489349C012D
:1030500037552F3F310509F068F4BE016F5F7F4F90
:103060000E940D18892B31F489859A852A96E2E011
:103070000C94A5348091660590916705F7CFAAE07E
:10308000B0E0E5E4F8E10C948334E4ECF2E080E5B0
:10309000DF011D928A95E9F7EAEDF5E088E3DF01AB
:1030A0001D928A95E9F784ECC82E82E0D82E7F0124
:1030B00003E413E0F701D182C0824AE050E0B80196
:1030C000CE0101960E94EF3488E0FE013196D601D0
:1030D00001900D928A95E1F789859A85D70113961B
:1030E0009C938E931297BAE0CB0ED11CE7E0EE0EC4
:1030F000F11C065F1F4F0339F3E01F07D9F62A962C
:10310000E8E00C949F34A4E0B0E0E9E8F8E10C9426
:1031100087344091230250912402609125027091DE
:1031200026022FB7F89480912A0690912B06A09141
:103130002C06B0912D062FBF841B950BA60BB70B49
:1031400011E084369105A105B10590F10E94600D52
:10315000882399F10E94BF086E5F7F4F8F4F9F4F6A
:1031600069837A838B839C838091110190911201F2
:10317000875E9D4F4091100150E04530510510F0A1
:1031800044E050E0BE016F5F7F4F0E94DF3482E079
:1031900090E00E94EF33182F882351F00E94BF085F
:1031A0006093230270932402809325029093260259
:1031B000812F2496E4E00C94A3340E94BF08009170
:1031C00028021091290220912A0230912B02600FCF
:1031D000711F821F931FC0CFEF92FF921F93CF9357
:1031E000DF9300D000D000D0CDB7DEB77B0190E0F8
:1031F00080E00E94EF33182F882309F480C04091AB
:10320000030150E04115510511F041E050E060919B
:10321000040170910501675E7D4FCE0106960E9404
:10322000DF3440911502509116026091170270919F
:1032300018022FB7F89480912A0690912B06A0913E
:103240002C06B0912D062FBF841B950BA60BB70B38
:1032500084369105A105B10540F48AE192E00E940F
:10326000E6069E81891709F44AC081E090E00E9439
:10327000EF33811116C010E085E0E0E1F2E0D70104
:1032800001900D928A95E1F7812F26960FB6F8945A
:10329000DEBF0FBECDBFDF91CF911F91FF90EF90AA
:1032A000089540910B0150E04630510510F045E083
:1032B00050E060910C0170910D01675E7D4FCE0171
:1032C00001960E94DF348AE192E00E94E6069E8128
:1032D0008913D1CF0E94BF08609315027093160224
:1032E000809317029093180285E0FE013196A0E1C9
:1032F000B2E001900D928A95E1F711E0BDCF85E033
:10330000EAE1F2E0DE01119601900D928A95E1F773
:103310001111EACFB1CF68EE7EEF90E080E00E941D
:103320002B3560E082E090E00E940D3560E083E0A4
:1033300090E00E940D351092040260E084E090E07D
:103340000E940D3564E082E290E00E940D3560E05D
:1033500085E090E00E940D3560E086E090E00E94FC
:103360000D356FEF87E090E00E940D3540E050E0B2
:10337000BA0188E090E00E941F3560E08DE090E0A7
:103380000E940D3540E050E0BA0188E190E00E94D3
:103390001F3560E087E190E00E940D3540E050E08D
:1033A000BA018CE190E00E941F3570E060E080E29D
:1033B00090E00E942B3540E050E0BA0188E190E0B7
:1033C0000E941F3580E00E94C5150E94FD1740E055
:1033D00050E0BA018FE090E00E941F3540E050E0DD
:1033E000BA0183E190E00E941F3508951F920F9269
:1033F0000FB60F9211242F933F934F935F936F93C8
:103400007F938F939F93AF93BF93CF93DF93EF936C
:10341000FF93D091E900DF708091EC00C82FC1705C
:1034200080FDC0E81092E9008091F000877F8093D2
:10343000F00078940E9462111092E9008091F000EF
:1034400088608093F000CD2BCF70C093E900FF918E
:10345000EF91DF91CF91BF91AF919F918F917F912C
:103460006F915F914F913F912F910F900FBE0F90F1
:103470001F9018951F920F920FB60F9211242F9341
:103480003F934F935F936F937F938F939F93AF93EC
:10349000BF93EF93FF938091E10082FF09C0809179
:1034A000E20082FF05C08091E1008B7F8093E10004
:1034B0008091DA0080FF24C08091D80080FF20C076
:1034C0008091DA008E7F8093DA008091D90080FFAE
:1034D0009DC080E189BD82E189BD09B400FEFDCFB8
:1034E00081E08093470680913106811109C00E94D6
:1034F000FD060E94F0078091E20084608093E20064
:103500008091E10080FF17C08091E20080FF13C02E
:103510008091E2008E7F8093E2008091E2008061E2
:103520008093E2008091D80080628093D80019BC1B
:1035300085E0809347068091E10084FF2BC0809155
:10354000E20084FF27C080E189BD82E189BD89B5A1
:10355000982F917080FFFBCF8091D8008F7D809352
:10356000D8008091E1008F7E8093E1008091E2009D
:103570008F7E8093E2008091E20081608093E20080
:1035800080913E06882309F447C084E08093470673
:10359000809147068091E10083FF27C08091E2007F
:1035A00083FF23C08091E100877F8093E10082E068
:1035B0008093470610923E068091E1008E7F8093B3
:1035C000E1008091E2008E7F8093E2008091E20032
:1035D00080618093E20042E060E080E00E94BE07EC
:1035E0008091F00088608093F000FF91EF91BF918F
:1035F000AF919F918F917F916F915F914F913F918B
:103600002F910F900FBE0F901F90189519BC10921C
:1036100047061092310674CF8091E30087FD93E056
:1036200090934706B5CF78941F921FB61F9211242E
:103630008F939F93AF93BF9380912A0690912B060F
:10364000A0912C06B0912D060196A11DB11D80936D
:103650002A0690932B06A0932C06B0932D06BF91BB
:10366000AF919F918F911F901FBE1F9018959C0145
:103670004FB7F89480912A0690912B06A0912C06C2
:10368000B0912D064FBF821B930B08952FB7F8946E
:1036900080912A0690912B06A0912C06B0912D06C0
:1036A0002FBF0895B0E0A0E0E8E5FBE10C94813481
:1036B0007C015B01C42FD22FFC0182818823A9F0F9
:1036C000409320060E94461B90931F0680931E067F
:1036D000C77081E001C0880FCA95EAF70E94EB0E1F
:1036E000CDB7DEB7EAE00C949D3410912006141398
:1036F00038C080911E0690911F060E94371B6C01F6
:10370000B701C5010E942118C816D90650F5C0E2BC
:10371000CD0F1D17C1F080E2810F883048F417707B
:1037200081E0012E01C0880F0A94EAF70E94E40E9E
:10373000C83048F481E09D2F977001C0880F9A959A
:10374000EAF70E94EB0E802F0E94AE0FC83040F6C1
:10375000D77081E001C0880FDA95EAF70E94E40E85
:10376000BFCFC77081E001C0880FCA95EAF7F6CFD6
:10377000AFE0B0E0EEEBFBE10C947E348E010F5F26
:103780001F4F8AE0D8011D928A95E9F78CE6C82E72
:1037900081E0D82EF12CE12CAA24A394B12C27E7A8
:1037A000822E21E0922EF60181916F018F3F09F464
:1037B00042C0F894E82FE295EF70F0E021A18F70FD
:1037C000A50102C0440F551F8A95E2F7CA01922F46
:1037D000982B91A392A18095892382A3789400C00D
:1037E000E1E7F1E0712C31E021912F3F09F46BC04A
:1037F000A22FA295AF70B0E090968C9190E02F70C0
:1038000002C0959587952A95E2F780FD5CC0832FCD
:10381000782A330F8E169F0639F7F601319780818B
:103820008F3F11F00E94020A50EA5A95F1F7F80111
:10383000EE0DFF1D70828FEFE81AF80AA5E0EA1678
:10384000F10409F0B0CF4AE050E0B8018CE292E018
:103850000E94D234009741F02AE0F801ACE2B2E0D5
:1038600001900D922A95E1F700913702892B69F1B9
:1038700081E0809307020E94461B9093060280938A
:10388000050280910502909106020E94371B059760
:1038900000F110E008581D4F45E050E06CE272E086
:1038A000C8010E94D234B12C892B51F085E0ECE2A2
:1038B000F2E0D80101900D928A95E1F7BB24B39410
:1038C0001092070207C080E0A3CF80910702811108
:1038D000D8CFB12C0E94600DF82EE09137028823DA
:1038E00009F46DC06E01BBE0CB0ED11C85E0D601A2
:1038F0001D928A95E9F70E2F10E008581D4F809110
:1039000027028A3050F54CEE58E1B601C8010E94FA
:103910002D0D882309F442C043E858E1B601C801DF
:103920000E942D0D8823D1F110922702809136023A
:1039300090E045E050E0B60188589D4F0E94D23497
:1039400021E020930E02892BE1F4F12C1F2D812F11
:103950008B292F96EDE00C949A3480910802909177
:1039600009020E94371B843F914068F680910E0245
:10397000882359F385E0F60111928A95E9F71092B0
:103980000E02A0913602B0E0A858BD4F85E0FE01BE
:103990003B9601900D928A95E1F7D8CF809127024E
:1039A0008F3F31F08F5F809327028A3008F4BECFBB
:1039B0000E94461B9093090280930802D7CFF0E043
:1039C000E858FD4F85E0AAE1B2E001900D928A959A
:1039D000E1F78AE192E00E94E60680931902C09026
:1039E0001F02D0902002E0902102F09022028091EC
:1039F0000A0290910B02A0910C02B0910D02C81620
:103A0000D906EA06FB0611F410E0A1CFC0920A0223
:103A1000D0920B02E0920C02F0920D020E94600D17
:103A2000182F8111F1CF0E94BF08C61AD70AE80AE1
:103A3000F90AC0922802D0922902E0922A02F0925A
:103A40002B0285CFA9E1B0E0E8E2FDE10C947934E6
:103A5000942F498B252F5A8B6B8B7C8B8D8B4C89AC
:103A60005D89622F892F0E94F708811109C080911A
:103A700098019091990101969093990180939801F2
:103A80008B898111109249061D861E861F86188A11
:103A900085E0FE017196DE01199601900D928A95DE
:103AA000E1F74C855D856A8589850E94F70881115B
:103AB00011C061E0CE0109960E9423176C018B852D
:103AC00027EFC2162CE5D20681F4882321F181E08C
:103AD00080932F0129853A854B855C856D857E8590
:103AE0008F8598890E940C28C6C038EFC3163CE524
:103AF000D30629F4882379F00E94C828EBCF49EF38
:103B0000C4164CE5D40639F4882329F080912F019E
:103B10008111F2CFDCCF0AED15E0512CB12CA12C94
:103B200022242394312C2EEF422EF8014081518122
:103B300088248A94982C20E0822F90E0FC01EE0FDC
:103B4000FF1FE40FF51F608171816115710531F070
:103B5000C616D70609F44C012F5FEECFF12CFFEF0C
:103B60008F169F0609F449C0F8014481F0902F0197
:103B70008F2D411180E0F82FF170FF2EF801E580C4
:103B800086819B85992309F4F8C0FF2009F4F5C0CC
:103B90006090640570906505E11013C0A101082CC8
:103BA00001C0440F0A94EAF7842B8683809176053E
:103BB000909177058615970520F4709277056092AD
:103BC0007605C10102C0880F991F2A95E2F7019777
:103BD000F80126812817190681F480911C0690911E
:103BE0001D06009709F44BC00E94371B6816790622
:103BF00008F045C021E0F80124835F28FFEFAF1AE9
:103C0000BF0A095F1F4F28E0A216B10409F08DCF4B
:103C10008B85882309F40DC1552009F40AC10E943F
:103C2000461B90931D0680931C0680917905883071
:103C300010F591E0980F9093790598E0FE01399680
:103C4000DE01119601900D929A95E1F73CE0839F79
:103C5000C001112486589A4F28E0FE013196DC01FC
:103C600001900D922A95E1F72FEF3FEFFC0131878C
:103C70002087D386C2866996E2E10C9495348091C0
:103C80001A0650911B06982FF0E0E0E0851314C04F
:103C900090931A060E171F0709F4AFCF90E0FC01AE
:103CA000EE0FFF1FEE5EF94FB182A0820196837086
:103CB000992780931B06A1CF682E712CF301EE0F7C
:103CC000FF1FEE5EF94F2081318147E0429FD00116
:103CD000439FB00D1124A652BA4F6D917C9111975C
:103CE000798F688F40E020E030E0E32FF0E0EE0FC6
:103CF000FF1F688D798DE60FF71F808091808114FA
:103D00009104E1F0F8010190F081E02DFF8BEE8B42
:103D100020E005C08616970609F44F2D2F5FE22F8D
:103D2000F0E0EE0FFF1F6E897F89E60FF71F6081BD
:103D300071816115710571F73F5FD7CF4423D1F0D1
:103D4000F801231708F0FD0121E024830E171F0757
:103D500021F490931A06F42E50CF981305C0AE1795
:103D6000BF0711F49F5F937093012F5F3F4F822F26
:103D700083708CCFF0E0E0E0F7CF90E0E11020C05E
:103D8000B10102C0660F771F2A95E2F79B0121500F
:103D900031092817390731F4442309F448C0C50113
:103DA0000E940209C101082C01C0880F0A94EAF799
:103DB000982F9095F801868189238683FE2C1DCF4C
:103DC0009C01082C02C0359527950A94E2F7A901B9
:103DD00041705527BC016150710986239723892BB7
:103DE00011F5452B01F1F80182819381892BC1F0F6
:103DF0001B821C821D821E8249824A820E94461BAF
:103E00008160582F9D838C83F801828193818F83F9
:103E1000988729813A814B816D817E810E940C288F
:103E2000F8011582BFCFF22FF170EF2EBBCFEF2C30
:103E3000B9CF90911A0680911B06981731F00E9415
:103E4000D728552009F446CE16CF0E947A28109222
:103E50001D0610921C060E943009F3CFA5E0B0E0C9
:103E6000E4E3FFE10C9489349093170380931603E5
:103E7000811520E2920730F40E942A0F2596E2E095
:103E80000C94A53480EF89838A831B820E94461B91
:103E90008160782F9D838C8349815A816B818D81CC
:103EA0000E94221DEBCF0F931F93CF93DF938C01C2
:103EB000EB0166E872E08C2F0E940D18892BA1F4AB
:103EC00080916C0590916D050E94230DDD27CE57E2
:103ED000DD4F8881F801128218828330F1F048F4B6
:103EE000813059F0823081F0DF91CF911F910F9195
:103EF00008958430B9F08530B9F7809186029091A9
:103F00008702009789F306C0809188029091890208
:103F1000009799F30E942E1FE7CF80918A0290911B
:103F20008B02F6CF80918C0290918D02009791F7D1
:103F300020918602309187028091880290918902B7
:103F400021153105F1F2009729F7C901E3CFA5E06A
:103F5000B0E0EDEAFFE10C9489349093170380936D
:103F60001603811520E2920730F40E947110259605
:103F7000E2E00C94A53480EF89838A8381E08B830F
:103F80000E94461B8160782F9D838C8349815A81D2
:103F90006B818D810E94221DEACFCF93DF93EC01CC
:103FA0000E94A71F80916C0590916D050E94230DC2
:103FB000CE010E942E1FDF91CF9108950F931F9382
:103FC000CF93DF938C01862F66E872E00E940D1874
:103FD000892BB1F4C0918602D0918702209781F09D
:103FE000F8018281833051F4CE010E94CD1FCE01B1
:103FF0000E94CD1FCE010E94CD1F02C08430D0F799
:10400000DF91CF911F910F9108950F931F93CF933D
:10401000DF938C01EB0166E872E08C2F0E940D1893
:10402000892B09F05CC0FE01FF27D80112968C9104
:104030001297EE57FD4F8130B9F414969C9192FF80
:1040400002C080830AC090FFFCCF82E08083809111
:104050008802909189020097B9F48091860290912C
:1040600087020097E1F110C08230B9F514968C9167
:1040700082FD28C080FD0BC083E0808380918A028E
:1040800090918B02009701F10E94A71F28C084E045
:10409000808380918C0290918D020097A9F7809186
:1040A0008602909187020097F9F00E94CD1F8091BF
:1040B000880290918902009739F780918602909149
:1040C0008702E2CF85E0808380918602909187020B
:1040D000009729F00E94CD1FF0CF86E08083DF910A
:1040E000CF911F910F91089580918802909189023C
:1040F000B8CFA4E0B0E0EFE7F0E20C9480347C01AC
:10410000DC0113964D915C91149711966C91119767
:104110008C910E94F7088111E1C061E0C7010E9403
:1041200023178C01F70182818823E1F08091210619
:10413000909122060097B1F00817190799F0FDE059
:104140008F9FC0011124FC01EC56FD4F208124609B
:10415000208380579D4FDC010D931C930E94440ED9
:1041600010924906F7018281882309F4F5C4980169
:1041700022513F452031310508F064C48FEF93E0B0
:104180000E94FF348111AAC05EEEF52EF00E03E905
:1041900013E0F11036C019821A821B821C82BB24E4
:1041A000BA9478012FEFE21AF20AC8010E94FF3494
:1041B00089831A82882309F491C0813009F07FC075
:1041C000680142E0C40ED11CC7010E94FF34E82EF2
:1041D0008A83882309F482C0C6010E94FF34F82E26
:1041E0008FEF8E0D8330D8F4680153E0C50ED11CDB
:1041F000FB82FF2021F0CE0101960E94D00F8601A4
:10420000D0CF0115F4E01F0709F468C0C8010E946F
:10421000FF34811101C0FA940F5F1F4FBACF8BEFAB
:104220008E0D833030F5C8010396FB826C01FF20B0
:1042300031F36801A4E0CA0ED11C0E94FF348C83C4
:104240008823E9F28B819C818130BFEF9B0710F0BE
:10425000982F8827E6E0EE1631F0F7E0EF1631F000
:104260000E94CD1FCCCF0E94A71FC9CF0E942E1F36
:10427000C6CF24E0E212C3CF680144E0C40ED11CD3
:10428000C80103960E94FF34FF2041F1882331F1D9
:104290008150990BB89E9001B99E300D1124AF2D1D
:1042A000A150BB0BCD01820F931F019708F4A7CF3C
:1042B000EFE9FFE03197F1F700C00000F6CFCE0143
:1042C00001960E94D00F67019ACF81E00E94BE0E36
:1042D00003C081E00E94B10E0E94A50E2496EBE07F
:1042E0000C949C3482E0F2CF823009F0ECC38091D0
:1042F0008A0290918B02892B09F4E5C32DE02C9D55
:10430000C0012D9D900D1124FC01EC56FD4F208124
:104310002E7F208380579D4F0E94440ED4C35FEFB1
:10432000C516D10409F008F4CEC38091690580FF59
:1043300039C00E94461B6C01D70112968C918823CC
:1043400009F468C080912E0182FF08C027E432E0A2
:1043500040E0B60190E080E00E949E100B31BCE589
:104360001B0709F449C00C31ECE51E0709F44AC0EB
:1043700090912E01892F8E7F90FF81600A31FCE59C
:104380001F0709F442C0C8019056811520E2920728
:1043900028F0905E8115904108F04AC01092750592
:1043A00010927405033FFCE51F0709F44EC108F0A5
:1043B0001EC1083D4CE5140709F441C1093D5CE507
:1043C000150709F45AC1073D8CE5180709F018C113
:1043D00006E221EE41EE67ED7CE5C7010E94521B2B
:1043E0007DCF902F812FB3C3F601848181FF9DCFB4
:1043F000C6010E94280E99CF80912E018160809382
:104400002E01C1CF80912E018E7F80932E010E94BC
:10441000690EB9CF80912E018F7E013E110531F0DA
:10442000053E1105C1F480912E018F7D80932E01F0
:1044300080912E0180FFB6CFF701828108321105ED
:1044400028F50E31110508F067C00430110580F51C
:104450008111A4CFA7CFC8019056811550E29507CE
:1044600020F0905E8115904118F780912E0182FF17
:1044700099CF80916B0581FD95CF27E432E040E034
:10448000B60190E080E00E949E108CCF09331105A8
:1044900058F40D32110518F40B321105C9F690913C
:1044A000690592FDD5CF08C004361105C1F3D0CF00
:1044B0009091690594FDCCCF882309F491C0809137
:1044C0002D058D7F71F11092750510927405809104
:1044D000690581FD26C0F80133E0F695E7953A9528
:1044E000E1F7EE71FF27E25DFA4F98012F70332755
:1044F00081E090E002C0880F991F2A95E2F780952D
:10450000909520813181822393239183808360E081
:10451000C8010E948910E2CE9091690593FD98CF61
:10452000CBCF88E0F701A7E4B2E001900D928A9525
:10453000E1F71092490210924B0210924A028091C8
:1045400074059091750508171907C1F52091690543
:1045500025FF34C030912E0131FF02C026FF2EC04E
:1045600020917205309173055601A21AB30AB70162
:104570000E942118A816B90608F580912D0581FF23
:1045800008C080912E01806180932E0182E00E94FC
:10459000C90B80912D0585FF08C080912E01806296
:1045A00080932E0180E20E94C90B60912E016695D6
:1045B00061708091740590917505ABCF90912D0538
:1045C00080912E0191FB81F910937505009374057C
:1045D000D0927305C0927205846080932E017ECEC6
:1045E000970140E0B601C8010E949E1077CE053FBA
:1045F0009CE51907B1F178F1063FBCE51B07B9F15D
:10460000F7019281992309F442C0109220060E3DD1
:10461000FCE51F07C1F1073A2DE51207B1F10115BD
:104620001C45A9F50E9456115FEF84E39CE05150B0
:1046300080409040E1F700C000000E94AE0807E211
:1046400025EE45EE68ED7CE5C8CE06E221EE40EEB3
:1046500063EF7CE5C2CE07E225EE44EE64EF7CE535
:10466000BCCE06E221EE42EE65EF7CE5B6CE07E277
:1046700025EE46EE66EF7CE5B0CE08E221E045EEA1
:1046800069ED7CE5AACE0E948B190E942B14D701FC
:1046900016962D913C9121153105D1F0C9010E944A
:1046A0005C0A182F092FD7011296DC9012971596E5
:1046B000CC90C2942FE0C22292959F70A92EB12C6B
:1046C0009C3008F050C0F501EB5AFA4C0C94BC3405
:1046D000F70100811181992369F0C8010E94A71692
:1046E000D82E682FC8010E942E0CB8018D2D0E9473
:1046F0008A16D5CFC8010E94FA0BD82EF6CFB02F5C
:10470000BF709B2E802F807F19F0929490EF99229A
:10471000DD20C9F0992069F080E2810F883010F027
:1047200011110BC080912D05982A90922D050E94A1
:10473000010E812F0E94420F16C080914906982ACF
:1047400090924906F4CF812F0E94F50E992059F0DE
:1047500080E2810F883010F011111DC0892D0E9458
:10476000C90B0E94010E28E0A21AB10844E0A41669
:10477000B10410F40E94830D812F902F0E94650CCC
:1047800081113AC1109299011092980160E0C7011D
:104790000E942317A3CD909480914906982290926D
:1047A0004906DFCFE02FEF709E2E802F807F803272
:1047B00019F0929480EF9822113081F48091700565
:1047C000DD2031F08C1578F2892D0E94EB0ECBCFD5
:1047D000C81648F6892D0E94E40EC5CFDD20E9F009
:1047E000CC2091F320E0D7014C9111965C91119768
:1047F00012966C91129713967C91139714968C9144
:104800000E94001780916B0581FD93CFF701858190
:1048100080FF8FCF8F708583D7CFCC20D9F2809146
:104820006E0590916F05193321F080916C05909180
:104830006D050E94230D812F0E94F50E94CF802FCD
:1048400086958695837069F0813009F08CCF812F31
:10485000902F9370D11002C090E080E00E94CB08AE
:1048600082CF812F902F9370D11002C090E080E012
:104870000E94E10878CF802F837091F5D11073CF1B
:10488000412F429546954770440F440F812F8F70FA
:10489000042E01C0880F0A94EAF7212F207114FF1B
:1048A00007C02FE030E001C0220F4A95EAF72095BB
:1048B000302F369536953370323069F050F4409190
:1048C0000402313029F0822B84230E94CA0E4BCF80
:1048D000842B822BFACF282B809104028227F5CFDC
:1048E0008695DD2011F0802F8170882309F43BCF5D
:1048F000412F429546954770440F440F812F8F708A
:10490000042E01C0880F0A94EAF7212F207114FFAA
:1049100007C02FE030E001C0220F4A95EAF720954A
:10492000302F369536953370323069F050F440911F
:104930004806313029F0822B84230E94990E13CF30
:10494000842B822BFACF282B809148068227F5CF23
:10495000F02FFF709F2EDD2029F08F2F0E94BE0EBA
:10496000812F33CF812F0E94E40E892D0E94B10E3A
:10497000FACE113F81F148F4103FB1F0DD20B9F1DA
:10498000C110D7CE802F8F712AC0123F59F1133F2B
:10499000A9F780E0DD2089F281E0902F9F7101C0AE
:1049A000880F9A95EAF7C9CF80917005DD2079F0DC
:1049B000C81608F0D8CE202F2F7181E090E001C0FA
:1049C000880F2A95EAF7909148068927B6CF8C156B
:1049D00008F4C9CEF0CF802F8F71DD2039F20E940C
:1049E000BE0EC1CE802F8F71DD20C9F3BFCFC110A5
:1049F00016CF802F8F71BACFDD2019F0C110C2CE33
:104A0000C5CEC110BFCE20E0D7014C9111965C916C
:104A1000119712966C91129713967C911397149696
:104A20008C910E94001780916B0583FFABCE809123
:104A3000980190919901029709F0A4CE812F0E94CC
:104A4000AE0FA0CE0031BFE51B0709F43ECC01310B
:104A5000EFE51E0709F446CC680127E5D21A81115B
:104A60005ECC4FEFC416D10411F008F05ECC66E8BE
:104A700072E08C2D0E940D18892B29F58DE08C9DFC
:104A8000F0018D9DF00D1124E057FD4F82818130A2
:104A900009F02ACC8091860290918702892B99F0A7
:104AA0008091880290918902892B69F080918A0215
:104AB00090918B0220918C0230918D02822B932B4E
:104AC000892B09F41BCC5801BB244DE0049FF00155
:104AD0001124CF0180579D4F6C01D70112968C9104
:104AE000EC56FD4F908180FB90F99083882309F468
:104AF0007BCC0E94461B9093460280934502D601D0
:104B000012968C9112978F5F12968C9312978091C8
:104B1000490690912D05892B13968C931397159622
:104B2000ED91FC911697309729F01B966D917C9131
:104B3000C60109958DE08A9DF0018B9DF00D112431
:104B4000E057FD4F848181FF4CCC90E080E0909352
:104B5000210680932206E9CB0031FFE51F0709F407
:104B6000B8CB01312FE5120709F076CF82E0B2CB46
:104B7000B0E0A0E0EEEBF5E20C9483348091B70155
:104B8000807F31F48091B401C091FB01811107C095
:104B9000CDB7DEB7E8E00C949F342196C7708091C2
:104BA000BA018C17A9F3F090B201E090B301C09064
:104BB000B501D090B601A6016E2D8F2D0E94F70889
:104BC000D0E08111EACF8E0183E0000F111F8A959A
:104BD000E1F7F801E554FE4F81818E11DECF80812F
:104BE0008F11DBCF82818111D8CFE380F480EC1864
:104BF000FD0860E082EB91E00E94231762EB71E018
:104C00000E942118E816F90640F68091B7018F70CE
:104C100080618093B701F801E054FE4F80818F706E
:104C20008061808382EB91E00E9479200E94F00BEA
:104C3000AFCFA5E1B0E0EFE1F6E20C947C348C015B
:104C400085E0F801DE01519601900D928A95E1F719
:104C5000D8015C9011966C9011971296EC90129777
:104C60001396CD90DC9060E082EB91E00E942317D8
:104C700082EBA82E81E0B82E8090B5019090B6010D
:104C8000A4016091B3018091B2010E94F7088111E3
:104C9000A8C1F090B401F601E819F9094F0160E0EC
:104CA000FF2009F44BC1C5010E942317B5010E94E2
:104CB00021187090B7018816990608F0F2C040914B
:104CC000B5015091B601B090B201A090B301872D0B
:104CD000807F6A2D09F08CC08B2D0E94F708FE2C76
:104CE000811127C0D80111968C9111978A1121C08A
:104CF0008C918B111EC02091B8013091B90116968C
:104D00008D919C9128173907A1F4E11012C0872DCD
:104D10008F7080618093B70182EB91E00E947920CF
:104D20008091B701F80185838F2D6596EFE00C9493
:104D30009834A601662D852D0E94F708D82E81E0B3
:104D40008E25D11080E080FF18C04E2D662D852D58
:104D50000E94D00B882389F080916B0580FF0DC0E5
:104D600082EB91E00E94792088E0E2EBF1E0DF0144
:104D70001D928A95E9F7F12CD7CF81E08E25D110CD
:104D800080E0B82FB170CB2E80FF29C04E2D662D4C
:104D9000852D0E94D00BD82E811121C0598A6A8A94
:104DA00089899A890E94D616292F22952F70223040
:104DB00050F0243078F49F7051F0F8019581907F85
:104DC00031F4FD2CB1CF9F7011F08823D1F3805EB8
:104DD0008830B8F3C8010E947920DC2CF2CFEE2095
:104DE00009F4A2CF8091B70181608093B701C3CF4E
:104DF0008B2D0E94F708811124C0D80111968C9147
:104E000011978A111EC08C918B111BC02091B80183
:104E10003091B90116968D919C91179728173907F3
:104E200081F4E1100EC015967C92C8010E94792091
:104E300088E0F801A2EBB1E001900D928A95E1F7CC
:104E400073CFC8010E94E316882339F1EE2029F1BF
:104E50008091B7018032A0F02091B2013091B3016E
:104E60003A8729871B86DD86CC868E878091B8019C
:104E70009091B901988B8F87CE0109960E94792075
:104E800088E0F801A2EBB1E001900D928A95E1F77C
:104E90000E94B825FF24F39447CFC8010E947920CF
:104EA000F9CF872D807F09F45BCF9090B20180907D
:104EB000B3014091B5015091B601682D892D0E9432
:104EC000F70881111CC0F8018181881118C0808108
:104ED000891115C02091B8013091B901868197815F
:104EE0002817390761F4E1100AC07582C8010E94D1
:104EF000792088E0D5011D928A95E9F715CFC80180
:104F00000E94E316882349F2EE2039F28091B7011E
:104F1000803208F4B5CF2091B2013091B3013A83C9
:104F200029831B82DD82CC828E838091B80190918F
:104F3000B90198878F83CE010196A0CF82EB91E0D3
:104F40000E94231762EB71E00E94211888169906CF
:104F500080F6FE2CEE2009F4A0CFE090B201D090B4
:104F6000B3014091B5015091B6016D2D8E2D0E9477
:104F7000F708811128C0F80181818D1124C080813A
:104F80008E1121C02091B8013091B901868197819D
:104F900028173907C1F480916B0582FD49CF9091A4
:104FA000B70190FD45CF907F09F442CF8091B701C2
:104FB0008583903F09F439CF982F907F905F8F7051
:104FC000892B858332CFC8010E94E316811158CF07
:104FD0008091B70181608093B701C8010E94792058
:104FE000A3CEEE2009F459CFC8010E94E316F82E93
:104FF000882309F452CF88E0F801A2EBB1E00190D8
:105000000D928A95E1F78091B2019091B3010E94CF
:10501000D6160E94B82588CEA0E1B0E0E2E1F8E221
:105020000C94893429873A874B875C876D877E8704
:105030008F87988BCE0109960E94192681112FC067
:1050400088E0FE013996DE01119601900D928A9555
:10505000E1F74C855D856A8589850E94F708811195
:105060001EC0A091BA01B0E0CD01019687709927CA
:105070002091FB0128171906E1F093E0AA0FBB1F4E
:105080009A95E1F7A554BE4F98E0FE013196019044
:105090000D929A95E1F78093BA010E94F00B8091EE
:1050A000FB019091BA01891312C06096E2E00C9462
:1050B000A5340E9456111092BA011092FB0188E0AB
:1050C000E2EBF1E0DF011D928A95E9F7E8CFB8E065
:1050D0008B9FC001112485549E4F0E94192688235E
:1050E00021F38091FB0190E00196877099278093CE
:1050F000FB01D5CFEF92FF920F931F93CF93DF93D6
:1051000080917905882361F0C09178058CE0F82EB4
:1051100080917905C81748F01092790510927805AA
:10512000CDB7DEB7E6E00C94A134EE24E394EC0EA8
:10513000E09278050C2F10E0CF9DE0011124C658B5
:10514000DA4F4B815C81698188810E94F708811167
:105150001DC08E819F81892B21F4888599850196B8
:1051600051F4288139814A815B816C817D818E81F6
:105170009F810E940C28F09EF001F19EF00D1124F9
:10518000E658FA4F1482138210924906CE2DC0CFF2
:1051900010921D0610921C0610922F0180911B0682
:1051A00080931A060E9430090E947A280895B0E080
:1051B000A0E0EDEDF8E20C947A34C0911A0697E085
:1051C000892E01E010E02CE0322E3EEF932E442495
:1051D000439480911B068C1309C00E947A280E9478
:1051E0003009CDB7DEB7E1E10C949634D0E0FE0192
:1051F000EE0FFF1FEE5EF94F80819181889ED001F6
:10520000899EB00D1124A652BA4F14962C91149772
:10521000211158C050907905EAE7F5E030E020E030
:10522000712C5D01251508F04BC0E284F384D50193
:10523000CD90DC906FEF7FEF612C462D50E0DA01CE
:10524000AA0FBB1FAC0DBD1D0D90BC91A02D1097DA
:1052500031F0EA16FB0609F4BA016394EECF6F3F12
:105260007607A9F1D80102C0AA0FBB1F6A95E2F721
:105270007A2AB801062C02C0660F771F0A94E2F75B
:10528000AB014150510974161506F9F4329EF00134
:10529000339EF00D1124E658FA4F889ED001899E66
:1052A000B00D1124A652BA4F12962D913C9113972E
:1052B00037832683908291829187808715964C92BE
:1052C0000E9402092196C37084CF148213822F5F3B
:1052D0003F4F3C96A7CF1F921FB61F9211248F936A
:1052E0009F93AF93BF9380912906811113C0809142
:1052F0002A0690912B06A0912C06B0912D0641967E
:10530000A11DB11D80932A0690932B06A0932C0615
:10531000B0932D06BF91AF919F918F911F901FBEAB
:105320001F901895CDB7DEB7C154D1090FB6F894C8
:10533000DEBF0FBECDBF85B7806885BF85B78068EB
:1053400085BF84B7877F84BF0FB6F894A8958091F6
:105350006000886180936000109260000FBE80E85A
:1053600090E00FB6F89480936100909361000FBEB7
:1053700080E09AE090938F0180938E010E94DB0978
:105380000E943F180E94FB150E94FD060E94F00734
:105390008091E20084608093E200789480914706D7
:1053A0008823A1F01091E9001F709091EC00892FE3
:1053B000817090FD80E8182B1092E9008091E80040
:1053C00083FD0E9462111F701093E90082E084BD8A
:1053D00093E095BD9AEF97BD80936E0010922802DE
:1053E0001092290210922A0210922B020E94311769
:1053F000811102C00E94FD170E94600D8093180168
:105400000E94600D81110E940333809118018091E8
:10541000180195E0811190E09093370285E0891B97
:10542000809336020CE611E091E7E92E91E0F92E27
:10543000D8018D918D018F3F11F00E94020AE01674
:10544000F106B1F701E711E087E7E82E81E0F82ED9
:10545000F80181918F018F3F11F00E94020AE0163E
:10546000F106B1F78AE0E8E7F2E0DF01282F1D92AC
:105470002A95E9F7ECE2F2E0DF011D928A95E9F75F
:1054800090E080E00E940735883E9E4F21F40E9404
:105490003117811102C00E948B1982E090E00E94B6
:1054A000FF3480933A0284E090E00E94FF34182F8A
:1054B00082E290E00E94FF34982F812F90931B038B
:1054C00080931A030E94B81BEFE3FCE93197F1F7D0
:1054D00000C000000E94B81B8091780280FF08C0C5
:1054E0006FEF7FEF90E080E00E942B350E94AE08C6
:1054F00083E090E00E94FF340E94CA0E0E94600D7B
:105500008111BDC082E080936F0280E880931C030C
:105510000E94BD316DE070E083E591E00E94940D42
:10552000892BE9F580916F0263E070E081FDA9C0ED
:1055300080E591E00E94940D892B89F56DE070E083
:1055400080E491E00E94940D892B49F50E94BF08E8
:10555000605A75418F4F9F4F6093270570932805C0
:105560008093290590932A05EFE1F3E080E092E033
:10557000DF019C011D9221503040E1F7F093260598
:10558000E09325058FEF9FEF90931E0380931D03FB
:1055900081E080932C0580932B05109270020E946D
:1055A000600D811102C00E94063389E191E0909361
:1055B00026068093250688E792E03AE0380F3FAF51
:1055C0001E014BE2240E311C8091470600E4F02EB0
:1055D00000E112E1853009F48EC00E94B81BBBE3E4
:1055E000EB2EB2E0FB2E18E7412E12E0512ED20135
:1055F000F70191918D9122E0E534F20709F485C01D
:105600009817B9F30E94600D882EA8E7CA2EA2E071
:10561000DA2E10E0D6010D916D01F70191907F0116
:10562000901629F19026B12CAA24A394892D8A21C1
:10563000B1F08820A1F0B8AE19AF91E0802F8A2197
:1056400009F490E09AAF0E94461B8160782F9CAFCE
:105650008BAF48AD59AD6AAD8CAD0E94221DB3949D
:10566000AA0CF6E0BF12E2CFF701319700831F5F6B
:105670001A3081F60E94BF08DD24D39467C080E011
:1056800042CF8DE491E056CF80914706843029F1D6
:105690000E94BE0D1092290688E190E00FB6F894A2
:1056A000A895809360000FBEF092600083B7817F61
:1056B000846083BF83B7816083BF7894889583B704
:1056C0008E7F83BF0FB6F894A895809160008861A3
:1056D00080936000109260000FBE80913D06882389
:1056E00051F00E94B81BE8E7F2E081918111F9C501
:1056F0009FAD9E13FACF80914706853009F4C4CF41
:105700000E9456110E94830D68CF98137BCF0E9490
:10571000461B8C01809138029091390208171907B5
:10572000A1F08FEF8BAB8CAB1DAA0E94461B816052
:10573000782F9FAB8EAB4BA95CA96DA98FA90E9456
:10574000221D1093390200933802D12C0E94600D63
:10575000882309F470C000912106109122060115DA
:10576000110519F180914502909146020E94371B64
:105770007C0188E0D1011D928A95E9F7B101C80149
:105780000E9421188E159F0580F480912106BDE0AE
:105790008B9FC0011124FC01EC56FD4F208122FD9E
:1057A00004C080579D4F0E94440E80912F01882392
:1057B00001F180911C0690911D060097D1F00E9486
:1057C000371B20917605309177052817390788F423
:1057D00090911A0680911B06981709F4A8C00E94A0
:1057E000D728109277051092760510921D06109218
:1057F0001C068091690580FF1EC080912E0182FFEA
:105800001AC00E94461B2091720530917305AC01AD
:10581000421B530B20912C0130912D01421753074D
:1058200050F027E432E041E0BC0180917405909192
:1058300075050E949E1080912C05882351F180915E
:105840007102909172020E94371BC29708F078C0D3
:1058500020911D0330911E032115310509F0E2C08E
:1058600080912B058823A9F00E94BF08009127058D
:10587000109128052091290530912A05601B710B94
:10588000820B930B6F3F7F4F8F4F9F4710F40E9407
:10589000BE0DD1100E94D90D0E94830D909173020C
:1058A000891721F0809373020E94BF0880914706F8
:1058B000843009F089CE83E08093E9008091E8008C
:1058C00082FF82CE8091E80090E085FF0CC00E94AC
:1058D0001C0740E2E42EF12C8E010F5F1F4F88233E
:1058E00009F486C191E08091E8008B778093E8000D
:1058F000992309F469CE0091180310911903898145
:105900000115110509F482C18E3F09F004C28A8194
:10591000833020F08550833008F0FDC1EA81EE30FD
:1059200008F0F9C1F0E0EF59FA4C0C94BC340E9435
:105930007A2810921D0610921C060E94300959CF39
:105940000E94461B909372028093710260E080E097
:105950000E9441090E94600D60E0882309F45FC045
:1059600085EA91E00E940015809148060E94800C13
:10597000823009F440C068F5882399F18130B9F18B
:105980000E94830D182F61E084E791E010FD03C0B1
:1059900060E080E791E00E94001562E084E011FF82
:1059A00032C00E94410961E08CE691E00E9400153E
:1059B00062E088E012FF2DC00E94410961E084E6A8
:1059C00091E00E94001580912C05882309F448CFAE
:1059D0003FCF8330A1F0843099F660E088E791E012
:1059E00003C060E08CE991E00E940015C9CF60E03F
:1059F00083E991E0F9CF60E08AE891E0F5CF60E0DB
:105A000081E891E0F1CF0E94410960E088E691E0F1
:105A1000CDCF0E94410960E080E691E0D2CF8DEACF
:105A200091E0CFCF8091700261E070E0811118CFDA
:105A3000082F10E07B01082E02C0EE0CFF1C0A9418
:105A4000E2F7A9014E215F21452B09F447C090914F
:105A50006F0290FD45C08295880F80768093270164
:105A60009801369527953695279520932A01815ED2
:105A70008093280110922B0124E630E047E050E0AB
:105A800065E271E088E70E945D32892B09F0E8CE7B
:105A9000A801E5E0440F551FEA95E1F780916F02F8
:105AA00080FD2CC0415E5C4F04E610E020E230E057
:105AB00060E488E70E947E32892B09F0D1CE0E94F3
:105AC000D90DE094F09480911D0390911E03E8227B
:105AD000F922F0921E03E0921D03C2CE8F5FA8CF81
